{
  "_format": "hh-sol-artifact-1",
  "contractName": "TimeLockWallet",
  "sourceName": "contracts/TimeLockWallet.sol",
  "abi": [
    {
      "inputs": [],
      "stateMutability": "nonpayable",
      "type": "constructor"
    },
    {
      "anonymous": false,
      "inputs": [
        {
          "indexed": true,
          "internalType": "uint256",
          "name": "lockId",
          "type": "uint256"
        },
        {
          "indexed": true,
          "internalType": "address",
          "name": "sender",
          "type": "address"
        },
        {
          "indexed": true,
          "internalType": "address",
          "name": "recipient",
          "type": "address"
        },
        {
          "indexed": false,
          "internalType": "uint256",
          "name": "amount",
          "type": "uint256"
        },
        {
          "indexed": false,
          "internalType": "uint256",
          "name": "releaseTime",
          "type": "uint256"
        }
      ],
      "name": "FundsLocked",
      "type": "event"
    },
    {
      "anonymous": false,
      "inputs": [
        {
          "indexed": true,
          "internalType": "uint256",
          "name": "lockId",
          "type": "uint256"
        },
        {
          "indexed": true,
          "internalType": "address",
          "name": "recipient",
          "type": "address"
        },
        {
          "indexed": false,
          "internalType": "uint256",
          "name": "amount",
          "type": "uint256"
        }
      ],
      "name": "FundsWithdrawn",
      "type": "event"
    },
    {
      "anonymous": false,
      "inputs": [
        {
          "indexed": true,
          "internalType": "address",
          "name": "previousOwner",
          "type": "address"
        },
        {
          "indexed": true,
          "internalType": "address",
          "name": "newOwner",
          "type": "address"
        }
      ],
      "name": "OwnershipTransferred",
      "type": "event"
    },
    {
      "inputs": [],
      "name": "getBalance",
      "outputs": [
        {
          "internalType": "uint256",
          "name": "",
          "type": "uint256"
        }
      ],
      "stateMutability": "view",
      "type": "function"
    },
    {
      "inputs": [
        {
          "internalType": "uint256",
          "name": "lockId",
          "type": "uint256"
        }
      ],
      "name": "getLockDetails",
      "outputs": [
        {
          "internalType": "uint256",
          "name": "amount",
          "type": "uint256"
        },
        {
          "internalType": "uint256",
          "name": "releaseTime",
          "type": "uint256"
        },
        {
          "internalType": "address",
          "name": "recipient",
          "type": "address"
        },
        {
          "internalType": "bool",
          "name": "withdrawn",
          "type": "bool"
        }
      ],
      "stateMutability": "view",
      "type": "function"
    },
    {
      "inputs": [],
      "name": "getLocksCount",
      "outputs": [
        {
          "internalType": "uint256",
          "name": "",
          "type": "uint256"
        }
      ],
      "stateMutability": "view",
      "type": "function"
    },
    {
      "inputs": [
        {
          "internalType": "address",
          "name": "recipient",
          "type": "address"
        },
        {
          "internalType": "uint256",
          "name": "releaseTime",
          "type": "uint256"
        }
      ],
      "name": "lockFunds",
      "outputs": [
        {
          "internalType": "uint256",
          "name": "lockId",
          "type": "uint256"
        }
      ],
      "stateMutability": "payable",
      "type": "function"
    },
    {
      "inputs": [
        {
          "internalType": "uint256",
          "name": "",
          "type": "uint256"
        }
      ],
      "name": "locks",
      "outputs": [
        {
          "internalType": "uint256",
          "name": "amount",
          "type": "uint256"
        },
        {
          "internalType": "uint256",
          "name": "releaseTime",
          "type": "uint256"
        },
        {
          "internalType": "address",
          "name": "recipient",
          "type": "address"
        },
        {
          "internalType": "bool",
          "name": "withdrawn",
          "type": "bool"
        }
      ],
      "stateMutability": "view",
      "type": "function"
    },
    {
      "inputs": [],
      "name": "nextLockId",
      "outputs": [
        {
          "internalType": "uint256",
          "name": "",
          "type": "uint256"
        }
      ],
      "stateMutability": "view",
      "type": "function"
    },
    {
      "inputs": [],
      "name": "owner",
      "outputs": [
        {
          "internalType": "address",
          "name": "",
          "type": "address"
        }
      ],
      "stateMutability": "view",
      "type": "function"
    },
    {
      "inputs": [
        {
          "internalType": "address",
          "name": "newOwner",
          "type": "address"
        }
      ],
      "name": "transferOwnership",
      "outputs": [],
      "stateMutability": "nonpayable",
      "type": "function"
    },
    {
      "inputs": [
        {
          "internalType": "uint256",
          "name": "lockId",
          "type": "uint256"
        }
      ],
      "name": "withdraw",
      "outputs": [],
      "stateMutability": "nonpayable",
      "type": "function"
    }
  ],
  "bytecode": "0x608060405234801561001057600080fd5b50336000806101000a81548173ffffffffffffffffffffffffffffffffffffffff021916908373ffffffffffffffffffffffffffffffffffffffff16021790555061139a806100606000396000f3fe6080604052600436106100865760003560e01c80636518a0b3116100595780636518a0b31461014f5780638da5cb5b1461017a578063de3794c4146101a5578063f2fde38b146101d0578063f4dadc61146101f957610086565b806312065fe01461008b57806312e382b4146100b65780632e1a7d4d146100e65780635b15bfd91461010f575b600080fd5b34801561009757600080fd5b506100a0610239565b6040516100ad9190610b37565b60405180910390f35b6100d060048036038101906100cb9190610be1565b610241565b6040516100dd9190610b37565b60405180910390f35b3480156100f257600080fd5b5061010d60048036038101906101089190610c21565b610518565b005b34801561011b57600080fd5b5061013660048036038101906101319190610c21565b610821565b6040516101469493929190610c78565b60405180910390f35b34801561015b57600080fd5b506101646108d3565b6040516101719190610b37565b60405180910390f35b34801561018657600080fd5b5061018f6108d9565b60405161019c9190610cbd565b60405180910390f35b3480156101b157600080fd5b506101ba6108fd565b6040516101c79190610b37565b60405180910390f35b3480156101dc57600080fd5b506101f760048036038101906101f29190610cd8565b610907565b005b34801561020557600080fd5b50610220600480360381019061021b9190610c21565b610ac1565b6040516102309493929190610c78565b60405180910390f35b600047905090565b60008060009054906101000a900473ffffffffffffffffffffffffffffffffffffffff1673ffffffffffffffffffffffffffffffffffffffff163373ffffffffffffffffffffffffffffffffffffffff16146102d2576040517f08c379a00000000000000000000000000000000000000000000000000000000081526004016102c990610d88565b60405180910390fd5b600073ffffffffffffffffffffffffffffffffffffffff168373ffffffffffffffffffffffffffffffffffffffff1603610341576040517f08c379a000000000000000000000000000000000000000000000000000000000815260040161033890610e1a565b60405180910390fd5b60003411610384576040517f08c379a000000000000000000000000000000000000000000000000000000000815260040161037b90610eac565b60405180910390fd5b4282116103c6576040517f08c379a00000000000000000000000000000000000000000000000000000000081526004016103bd90610f3e565b60405180910390fd5b600260008154809291906103d990610f8d565b91905055905060405180608001604052803481526020018381526020018473ffffffffffffffffffffffffffffffffffffffff1681526020016000151581525060016000838152602001908152602001600020600082015181600001556020820151816001015560408201518160020160006101000a81548173ffffffffffffffffffffffffffffffffffffffff021916908373ffffffffffffffffffffffffffffffffffffffff16021790555060608201518160020160146101000a81548160ff0219169083151502179055509050508273ffffffffffffffffffffffffffffffffffffffff163373ffffffffffffffffffffffffffffffffffffffff16827fc8ecfcc7f5c26830bd86d62da1aa5c5185cc6968f5d53c29a1f7d6eb45832756348660405161050a929190610fd5565b60405180910390a492915050565b80600254811061055d576040517f08c379a00000000000000000000000000000000000000000000000000000000081526004016105549061104a565b60405180910390fd5b6001600082815260200190815260200160002060020160149054906101000a900460ff16156105c1576040517f08c379a00000000000000000000000000000000000000000000000000000000081526004016105b8906110dc565b60405180910390fd5b60006001600084815260200190815260200160002090508060020160009054906101000a900473ffffffffffffffffffffffffffffffffffffffff1673ffffffffffffffffffffffffffffffffffffffff163373ffffffffffffffffffffffffffffffffffffffff161461066a576040517f08c379a00000000000000000000000000000000000000000000000000000000081526004016106619061116e565b60405180910390fd5b80600101544210156106b1576040517f08c379a00000000000000000000000000000000000000000000000000000000081526004016106a890611200565b60405180910390fd5b60018160020160146101000a81548160ff02191690831515021790555060008160000154905060008260020160009054906101000a900473ffffffffffffffffffffffffffffffffffffffff1673ffffffffffffffffffffffffffffffffffffffff168260405161072190611251565b60006040518083038185875af1925050503d806000811461075e576040519150601f19603f3d011682016040523d82523d6000602084013e610763565b606091505b50509050806107a7576040517f08c379a000000000000000000000000000000000000000000000000000000000815260040161079e906112b2565b60405180910390fd5b8260020160009054906101000a900473ffffffffffffffffffffffffffffffffffffffff1673ffffffffffffffffffffffffffffffffffffffff16857ff440aec6b52895984d061d622e6edeba6210f7c3e059be920663140c084560d7846040516108129190610b37565b60405180910390a35050505050565b600080600080600254851061086b576040517f08c379a00000000000000000000000000000000000000000000000000000000081526004016108629061104a565b60405180910390fd5b6000600160008781526020019081526020016000209050806000015481600101548260020160009054906101000a900473ffffffffffffffffffffffffffffffffffffffff168360020160149054906101000a900460ff169450945094509450509193509193565b60025481565b60008054906101000a900473ffffffffffffffffffffffffffffffffffffffff1681565b6000600254905090565b60008054906101000a900473ffffffffffffffffffffffffffffffffffffffff1673ffffffffffffffffffffffffffffffffffffffff163373ffffffffffffffffffffffffffffffffffffffff1614610995576040517f08c379a000000000000000000000000000000000000000000000000000000000815260040161098c90610d88565b60405180910390fd5b600073ffffffffffffffffffffffffffffffffffffffff168173ffffffffffffffffffffffffffffffffffffffff1603610a04576040517f08c379a00000000000000000000000000000000000000000000000000000000081526004016109fb90611344565b60405180910390fd5b8073ffffffffffffffffffffffffffffffffffffffff1660008054906101000a900473ffffffffffffffffffffffffffffffffffffffff1673ffffffffffffffffffffffffffffffffffffffff167f8be0079c531659141344cd1fd0a4f28419497f9722a3daafe3b4186f6b6457e060405160405180910390a3806000806101000a81548173ffffffffffffffffffffffffffffffffffffffff021916908373ffffffffffffffffffffffffffffffffffffffff16021790555050565b60016020528060005260406000206000915090508060000154908060010154908060020160009054906101000a900473ffffffffffffffffffffffffffffffffffffffff16908060020160149054906101000a900460ff16905084565b6000819050919050565b610b3181610b1e565b82525050565b6000602082019050610b4c6000830184610b28565b92915050565b600080fd5b600073ffffffffffffffffffffffffffffffffffffffff82169050919050565b6000610b8282610b57565b9050919050565b610b9281610b77565b8114610b9d57600080fd5b50565b600081359050610baf81610b89565b92915050565b610bbe81610b1e565b8114610bc957600080fd5b50565b600081359050610bdb81610bb5565b92915050565b60008060408385031215610bf857610bf7610b52565b5b6000610c0685828601610ba0565b9250506020610c1785828601610bcc565b9150509250929050565b600060208284031215610c3757610c36610b52565b5b6000610c4584828501610bcc565b91505092915050565b610c5781610b77565b82525050565b60008115159050919050565b610c7281610c5d565b82525050565b6000608082019050610c8d6000830187610b28565b610c9a6020830186610b28565b610ca76040830185610c4e565b610cb46060830184610c69565b95945050505050565b6000602082019050610cd26000830184610c4e565b92915050565b600060208284031215610cee57610ced610b52565b5b6000610cfc84828501610ba0565b91505092915050565b600082825260208201905092915050565b7f54696d654c6f636b57616c6c65743a2063616c6c6572206973206e6f7420746860008201527f65206f776e657200000000000000000000000000000000000000000000000000602082015250565b6000610d72602783610d05565b9150610d7d82610d16565b604082019050919050565b60006020820190508181036000830152610da181610d65565b9050919050565b7f54696d654c6f636b57616c6c65743a20726563697069656e74206973207a657260008201527f6f20616464726573730000000000000000000000000000000000000000000000602082015250565b6000610e04602983610d05565b9150610e0f82610da8565b604082019050919050565b60006020820190508181036000830152610e3381610df7565b9050919050565b7f54696d654c6f636b57616c6c65743a20616d6f756e74206d757374206265206760008201527f726561746572207468616e207a65726f00000000000000000000000000000000602082015250565b6000610e96603083610d05565b9150610ea182610e3a565b604082019050919050565b60006020820190508181036000830152610ec581610e89565b9050919050565b7f54696d654c6f636b57616c6c65743a2072656c656173652074696d65206d757360008201527f7420626520696e20667574757265000000000000000000000000000000000000602082015250565b6000610f28602e83610d05565b9150610f3382610ecc565b604082019050919050565b60006020820190508181036000830152610f5781610f1b565b9050919050565b7f4e487b7100000000000000000000000000000000000000000000000000000000600052601160045260246000fd5b6000610f9882610b1e565b91507fffffffffffffffffffffffffffffffffffffffffffffffffffffffffffffffff8203610fca57610fc9610f5e565b5b600182019050919050565b6000604082019050610fea6000830185610b28565b610ff76020830184610b28565b9392505050565b7f54696d654c6f636b57616c6c65743a20696e76616c6964206c6f636b20696400600082015250565b6000611034601f83610d05565b915061103f82610ffe565b602082019050919050565b6000602082019050818103600083015261106381611027565b9050919050565b7f54696d654c6f636b57616c6c65743a2066756e647320616c726561647920776960008201527f7468647261776e00000000000000000000000000000000000000000000000000602082015250565b60006110c6602783610d05565b91506110d18261106a565b604082019050919050565b600060208201905081810360008301526110f5816110b9565b9050919050565b7f54696d654c6f636b57616c6c65743a2063616c6c6572206973206e6f7420746860008201527f6520726563697069656e74000000000000000000000000000000000000000000602082015250565b6000611158602b83610d05565b9150611163826110fc565b604082019050919050565b600060208201905081810360008301526111878161114b565b9050919050565b7f54696d654c6f636b57616c6c65743a2072656c656173652074696d65206e6f7460008201527f2072656163686564000000000000000000000000000000000000000000000000602082015250565b60006111ea602883610d05565b91506111f58261118e565b604082019050919050565b60006020820190508181036000830152611219816111dd565b9050919050565b600081905092915050565b50565b600061123b600083611220565b91506112468261122b565b600082019050919050565b600061125c8261122e565b9150819050919050565b7f54696d654c6f636b57616c6c65743a207472616e73666572206661696c656400600082015250565b600061129c601f83610d05565b91506112a782611266565b602082019050919050565b600060208201905081810360008301526112cb8161128f565b9050919050565b7f54696d654c6f636b57616c6c65743a206e6577206f776e6572206973207a657260008201527f6f20616464726573730000000000000000000000000000000000000000000000602082015250565b600061132e602983610d05565b9150611339826112d2565b604082019050919050565b6000602082019050818103600083015261135d81611321565b905091905056fea26469706673582212206d34fbd1285daa53648d2404067cc4da482f97ab032410c90f0a8bc894c3264e64736f6c63430008140033",
  "linkReferences": {},
  "deployedLinkReferences": {}
}